{
    "contractName": "Produccion",
    "abi": [
        {
            "inputs": [
                {
                    "internalType": "uint256",
                    "name": "_initialAmount",
                    "type": "uint256"
                },
                {
                    "internalType": "string",
                    "name": "_tokenName",
                    "type": "string"
                },
                {
                    "internalType": "uint8",
                    "name": "_decimalUnits",
                    "type": "uint8"
                }
            ],
            "stateMutability": "nonpayable",
            "type": "constructor"
        },
        {
            "inputs": [],
            "name": "decimals",
            "outputs": [
                {
                    "internalType": "uint8",
                    "name": "",
                    "type": "uint8"
                }
            ],
            "stateMutability": "view",
            "type": "function"
        },
        {
            "inputs": [],
            "name": "name",
            "outputs": [
                {
                    "internalType": "string",
                    "name": "",
                    "type": "string"
                }
            ],
            "stateMutability": "view",
            "type": "function"
        },
        {
            "inputs": [],
            "name": "totalSupply",
            "outputs": [
                {
                    "internalType": "uint256",
                    "name": "",
                    "type": "uint256"
                }
            ],
            "stateMutability": "view",
            "type": "function"
        }
    ],
    "bytecode": "608060405234801561001057600080fd5b5060405161045e38038061045e83398101604081905261002f9161013b565b33600090815260016020908152604082208590559084905582516100599160049190850190610076565b506003805460ff191660ff92909216919091179055506102629050565b82805461008290610228565b90600052602060002090601f0160209004810192826100a457600085556100ea565b82601f106100bd57805160ff19168380011785556100ea565b828001600101855582156100ea579182015b828111156100ea5782518255916020019190600101906100cf565b506100f69291506100fa565b5090565b5b808211156100f657600081556001016100fb565b634e487b7160e01b600052604160045260246000fd5b805160ff8116811461013657600080fd5b919050565b60008060006060848603121561015057600080fd5b8351602080860151919450906001600160401b038082111561017157600080fd5b818701915087601f83011261018557600080fd5b8151818111156101975761019761010f565b604051601f8201601f19908116603f011681019083821181831017156101bf576101bf61010f565b816040528281528a868487010111156101d757600080fd5b600093505b828410156101f957848401860151818501870152928501926101dc565b8284111561020a5760008684830101525b80975050505050505061021f60408501610125565b90509250925092565b600181811c9082168061023c57607f821691505b60208210810361025c57634e487b7160e01b600052602260045260246000fd5b50919050565b6101ed806102716000396000f3fe608060405234801561001057600080fd5b50600436106100415760003560e01c806306fdde031461004657806318160ddd14610064578063313ce5671461007b575b600080fd5b61004e61009a565b60405161005b9190610128565b60405180910390f35b61006d60005481565b60405190815260200161005b565b6003546100889060ff1681565b60405160ff909116815260200161005b565b600480546100a79061017d565b80601f01602080910402602001604051908101604052809291908181526020018280546100d39061017d565b80156101205780601f106100f557610100808354040283529160200191610120565b820191906000526020600020905b81548152906001019060200180831161010357829003601f168201915b505050505081565b600060208083528351808285015260005b8181101561015557858101830151858201604001528201610139565b81811115610167576000604083870101525b50601f01601f1916929092016040019392505050565b600181811c9082168061019157607f821691505b6020821081036101b157634e487b7160e01b600052602260045260246000fd5b5091905056fea264697066735822122012c525db277eb26adc3a6dae56469c0c21330516c62edce283ec1e025d23a01264736f6c634300080e0033",
    "sourcePath": "c:/Users/pacog/Documents/VisualCodeWS/DApps/Contador/src/aa.sol",
    "compiler": {
        "name": "solc",
        "version": "0.8.14+commit.80d49f37"
    },
    "functionHashes": {
        "decimals()": "313ce567",
        "name()": "06fdde03",
        "totalSupply()": "18160ddd"
    },
    "gasEstimates": {
        "creation": {
            "codeDepositCost": "98600",
            "executionCost": "infinite",
            "totalCost": "infinite"
        },
        "external": {
            "decimals()": "2335",
            "name()": "infinite",
            "totalSupply()": "2295"
        }
    }
}