{
    "contractName": "Produccionx",
    "abi": [
        {
            "inputs": [
                {
                    "internalType": "uint256",
                    "name": "_initialAmount",
                    "type": "uint256"
                },
                {
                    "internalType": "string",
                    "name": "_tokenName",
                    "type": "string"
                },
                {
                    "internalType": "uint8",
                    "name": "_decimalUnits",
                    "type": "uint8"
                }
            ],
            "stateMutability": "nonpayable",
            "type": "constructor"
        },
        {
            "anonymous": false,
            "inputs": [
                {
                    "indexed": true,
                    "internalType": "address",
                    "name": "owner",
                    "type": "address"
                },
                {
                    "indexed": true,
                    "internalType": "address",
                    "name": "spender",
                    "type": "address"
                },
                {
                    "indexed": false,
                    "internalType": "uint256",
                    "name": "value",
                    "type": "uint256"
                }
            ],
            "name": "Approval",
            "type": "event"
        },
        {
            "anonymous": false,
            "inputs": [
                {
                    "indexed": true,
                    "internalType": "address",
                    "name": "from",
                    "type": "address"
                },
                {
                    "indexed": true,
                    "internalType": "address",
                    "name": "to",
                    "type": "address"
                },
                {
                    "indexed": false,
                    "internalType": "uint256",
                    "name": "value",
                    "type": "uint256"
                }
            ],
            "name": "Transfer",
            "type": "event"
        },
        {
            "inputs": [
                {
                    "internalType": "address",
                    "name": "_owner",
                    "type": "address"
                },
                {
                    "internalType": "address",
                    "name": "_spender",
                    "type": "address"
                }
            ],
            "name": "allowance",
            "outputs": [
                {
                    "internalType": "uint256",
                    "name": "remaining",
                    "type": "uint256"
                }
            ],
            "stateMutability": "view",
            "type": "function"
        },
        {
            "inputs": [
                {
                    "internalType": "address",
                    "name": "_spender",
                    "type": "address"
                },
                {
                    "internalType": "uint256",
                    "name": "_value",
                    "type": "uint256"
                }
            ],
            "name": "approve",
            "outputs": [
                {
                    "internalType": "bool",
                    "name": "success",
                    "type": "bool"
                }
            ],
            "stateMutability": "nonpayable",
            "type": "function"
        },
        {
            "inputs": [
                {
                    "internalType": "address",
                    "name": "_owner",
                    "type": "address"
                }
            ],
            "name": "balanceOf",
            "outputs": [
                {
                    "internalType": "uint256",
                    "name": "balance",
                    "type": "uint256"
                }
            ],
            "stateMutability": "view",
            "type": "function"
        },
        {
            "inputs": [],
            "name": "decimals",
            "outputs": [
                {
                    "internalType": "uint8",
                    "name": "",
                    "type": "uint8"
                }
            ],
            "stateMutability": "view",
            "type": "function"
        },
        {
            "inputs": [],
            "name": "name",
            "outputs": [
                {
                    "internalType": "string",
                    "name": "",
                    "type": "string"
                }
            ],
            "stateMutability": "view",
            "type": "function"
        },
        {
            "inputs": [],
            "name": "totalSupply",
            "outputs": [
                {
                    "internalType": "uint256",
                    "name": "",
                    "type": "uint256"
                }
            ],
            "stateMutability": "view",
            "type": "function"
        },
        {
            "inputs": [
                {
                    "internalType": "address",
                    "name": "_to",
                    "type": "address"
                },
                {
                    "internalType": "uint256",
                    "name": "_value",
                    "type": "uint256"
                }
            ],
            "name": "transfer",
            "outputs": [
                {
                    "internalType": "bool",
                    "name": "success",
                    "type": "bool"
                }
            ],
            "stateMutability": "nonpayable",
            "type": "function"
        },
        {
            "inputs": [
                {
                    "internalType": "address",
                    "name": "_from",
                    "type": "address"
                },
                {
                    "internalType": "address",
                    "name": "_to",
                    "type": "address"
                },
                {
                    "internalType": "uint256",
                    "name": "_value",
                    "type": "uint256"
                }
            ],
            "name": "transferFrom",
            "outputs": [
                {
                    "internalType": "bool",
                    "name": "success",
                    "type": "bool"
                }
            ],
            "stateMutability": "nonpayable",
            "type": "function"
        }
    ],
    "bytecode": "608060405234801561001057600080fd5b5060405162000957380380620009578339810160408190526100319161013d565b336000908152600160209081526040822085905590849055825161005b9160049190850190610078565b506003805460ff191660ff92909216919091179055506102649050565b8280546100849061022a565b90600052602060002090601f0160209004810192826100a657600085556100ec565b82601f106100bf57805160ff19168380011785556100ec565b828001600101855582156100ec579182015b828111156100ec5782518255916020019190600101906100d1565b506100f89291506100fc565b5090565b5b808211156100f857600081556001016100fd565b634e487b7160e01b600052604160045260246000fd5b805160ff8116811461013857600080fd5b919050565b60008060006060848603121561015257600080fd5b8351602080860151919450906001600160401b038082111561017357600080fd5b818701915087601f83011261018757600080fd5b81518181111561019957610199610111565b604051601f8201601f19908116603f011681019083821181831017156101c1576101c1610111565b816040528281528a868487010111156101d957600080fd5b600093505b828410156101fb57848401860151818501870152928501926101de565b8284111561020c5760008684830101525b80975050505050505061022160408501610127565b90509250925092565b600181811c9082168061023e57607f821691505b60208210810361025e57634e487b7160e01b600052602260045260246000fd5b50919050565b6106e380620002746000396000f3fe608060405234801561001057600080fd5b50600436106100885760003560e01c8063313ce5671161005b578063313ce567146100f857806370a0823114610117578063a9059cbb14610140578063dd62ed3e1461015357600080fd5b806306fdde031461008d578063095ea7b3146100ab57806318160ddd146100ce57806323b872dd146100e5575b600080fd5b61009561018c565b6040516100a29190610502565b60405180910390f35b6100be6100b9366004610573565b61021a565b60405190151581526020016100a2565b6100d760005481565b6040519081526020016100a2565b6100be6100f336600461059d565b610286565b6003546101059060ff1681565b60405160ff90911681526020016100a2565b6100d76101253660046105d9565b6001600160a01b031660009081526001602052604090205490565b6100be61014e366004610573565b6103c5565b6100d76101613660046105fb565b6001600160a01b03918216600090815260026020908152604080832093909416825291909152205490565b600480546101999061062e565b80601f01602080910402602001604051908101604052809291908181526020018280546101c59061062e565b80156102125780601f106101e757610100808354040283529160200191610212565b820191906000526020600020905b8154815290600101906020018083116101f557829003601f168201915b505050505081565b3360008181526002602090815260408083206001600160a01b038716808552925280832085905551919290917f8c5be1e5ebec7d5bd14f71427d1e84f3dd0314c0f7b2291e5b200ac8c7c3b925906102759086815260200190565b60405180910390a350600192915050565b6001600160a01b0383166000818152600260209081526040808320338452825280832054938352600190915281205490919083118015906102c75750828110155b6102d057600080fd5b6001600160a01b038416600090815260016020526040812080548592906102f890849061067e565b90915550506001600160a01b03851660009081526001602052604081208054859290610325908490610696565b909155505060001981101561036d576001600160a01b038516600090815260026020908152604080832033845290915281208054859290610367908490610696565b90915550505b836001600160a01b0316856001600160a01b03167fddf252ad1be2c89b69c2b068fc378daa952ba7f163c4a11628f55a4df523b3ef856040516103b291815260200190565b60405180910390a3506001949350505050565b60006001600160a01b0383166103ff5733600090815260016020526040812080548492906103f490849061067e565b909155506104c59050565b336000908152600160205260409020548211156104735760405162461bcd60e51b815260206004820152602860248201527f56616c6f722061207472616e736665726972207375706572696f7220616c206560448201526778697374656e746560c01b606482015260840160405180910390fd5b3360009081526001602052604081208054849290610492908490610696565b90915550506001600160a01b038316600090815260016020526040812080548492906104bf90849061067e565b90915550505b6040518281526001600160a01b0384169033907fddf252ad1be2c89b69c2b068fc378daa952ba7f163c4a11628f55a4df523b3ef90602001610275565b600060208083528351808285015260005b8181101561052f57858101830151858201604001528201610513565b81811115610541576000604083870101525b50601f01601f1916929092016040019392505050565b80356001600160a01b038116811461056e57600080fd5b919050565b6000806040838503121561058657600080fd5b61058f83610557565b946020939093013593505050565b6000806000606084860312156105b257600080fd5b6105bb84610557565b92506105c960208501610557565b9150604084013590509250925092565b6000602082840312156105eb57600080fd5b6105f482610557565b9392505050565b6000806040838503121561060e57600080fd5b61061783610557565b915061062560208401610557565b90509250929050565b600181811c9082168061064257607f821691505b60208210810361066257634e487b7160e01b600052602260045260246000fd5b50919050565b634e487b7160e01b600052601160045260246000fd5b6000821982111561069157610691610668565b500190565b6000828210156106a8576106a8610668565b50039056fea26469706673582212206e94714c713421726ba88ed07fd3720d283c440a45fbc57c624d554980aee81b64736f6c634300080e0033",
    "sourcePath": "c:/Users/pacog/Documents/VisualCodeWS/DApps/Contador/src/aa.sol",
    "compiler": {
        "name": "solc",
        "version": "0.8.14+commit.80d49f37"
    },
    "functionHashes": {
        "allowance(address,address)": "dd62ed3e",
        "approve(address,uint256)": "095ea7b3",
        "balanceOf(address)": "70a08231",
        "decimals()": "313ce567",
        "name()": "06fdde03",
        "totalSupply()": "18160ddd",
        "transfer(address,uint256)": "a9059cbb",
        "transferFrom(address,address,uint256)": "23b872dd"
    },
    "gasEstimates": {
        "creation": {
            "codeDepositCost": "352600",
            "executionCost": "infinite",
            "totalCost": "infinite"
        },
        "external": {
            "allowance(address,address)": "infinite",
            "approve(address,uint256)": "24522",
            "balanceOf(address)": "2559",
            "decimals()": "2313",
            "name()": "infinite",
            "totalSupply()": "2340",
            "transfer(address,uint256)": "53268",
            "transferFrom(address,address,uint256)": "infinite"
        }
    }
}