{
    "contractName": "Produccion",
    "abi": [
        {
            "inputs": [
                {
                    "internalType": "uint256",
                    "name": "_initialAmount",
                    "type": "uint256"
                },
                {
                    "internalType": "string",
                    "name": "_tokenName",
                    "type": "string"
                },
                {
                    "internalType": "uint8",
                    "name": "_decimalUnits",
                    "type": "uint8"
                }
            ],
            "stateMutability": "nonpayable",
            "type": "constructor"
        },
        {
            "anonymous": false,
            "inputs": [
                {
                    "indexed": true,
                    "internalType": "address",
                    "name": "_owner",
                    "type": "address"
                },
                {
                    "indexed": true,
                    "internalType": "address",
                    "name": "_spender",
                    "type": "address"
                },
                {
                    "indexed": false,
                    "internalType": "uint256",
                    "name": "_value",
                    "type": "uint256"
                }
            ],
            "name": "Approval",
            "type": "event"
        },
        {
            "anonymous": false,
            "inputs": [
                {
                    "indexed": true,
                    "internalType": "address",
                    "name": "_from",
                    "type": "address"
                },
                {
                    "indexed": true,
                    "internalType": "address",
                    "name": "_to",
                    "type": "address"
                },
                {
                    "indexed": false,
                    "internalType": "uint256",
                    "name": "_value",
                    "type": "uint256"
                }
            ],
            "name": "Transfer",
            "type": "event"
        },
        {
            "inputs": [
                {
                    "internalType": "address",
                    "name": "_owner",
                    "type": "address"
                },
                {
                    "internalType": "address",
                    "name": "_spender",
                    "type": "address"
                }
            ],
            "name": "allowance",
            "outputs": [
                {
                    "internalType": "uint256",
                    "name": "remaining",
                    "type": "uint256"
                }
            ],
            "stateMutability": "view",
            "type": "function"
        },
        {
            "inputs": [
                {
                    "internalType": "address",
                    "name": "_spender",
                    "type": "address"
                },
                {
                    "internalType": "uint256",
                    "name": "_value",
                    "type": "uint256"
                }
            ],
            "name": "approve",
            "outputs": [
                {
                    "internalType": "bool",
                    "name": "success",
                    "type": "bool"
                }
            ],
            "stateMutability": "nonpayable",
            "type": "function"
        },
        {
            "inputs": [
                {
                    "internalType": "address",
                    "name": "_owner",
                    "type": "address"
                }
            ],
            "name": "balanceOf",
            "outputs": [
                {
                    "internalType": "uint256",
                    "name": "balance",
                    "type": "uint256"
                }
            ],
            "stateMutability": "view",
            "type": "function"
        },
        {
            "inputs": [
                {
                    "internalType": "address",
                    "name": "_addressDel",
                    "type": "address"
                }
            ],
            "name": "borraProductor",
            "outputs": [],
            "stateMutability": "nonpayable",
            "type": "function"
        },
        {
            "inputs": [],
            "name": "decimals",
            "outputs": [
                {
                    "internalType": "uint8",
                    "name": "",
                    "type": "uint8"
                }
            ],
            "stateMutability": "view",
            "type": "function"
        },
        {
            "inputs": [],
            "name": "getAllProductores",
            "outputs": [
                {
                    "internalType": "address[]",
                    "name": "",
                    "type": "address[]"
                }
            ],
            "stateMutability": "view",
            "type": "function"
        },
        {
            "inputs": [],
            "name": "name",
            "outputs": [
                {
                    "internalType": "string",
                    "name": "",
                    "type": "string"
                }
            ],
            "stateMutability": "view",
            "type": "function"
        },
        {
            "inputs": [],
            "name": "totalSupply",
            "outputs": [
                {
                    "internalType": "uint256",
                    "name": "",
                    "type": "uint256"
                }
            ],
            "stateMutability": "view",
            "type": "function"
        },
        {
            "inputs": [
                {
                    "internalType": "address",
                    "name": "_to",
                    "type": "address"
                },
                {
                    "internalType": "uint256",
                    "name": "_value",
                    "type": "uint256"
                }
            ],
            "name": "transfer",
            "outputs": [
                {
                    "internalType": "bool",
                    "name": "success",
                    "type": "bool"
                }
            ],
            "stateMutability": "nonpayable",
            "type": "function"
        },
        {
            "inputs": [
                {
                    "internalType": "address",
                    "name": "_from",
                    "type": "address"
                },
                {
                    "internalType": "address",
                    "name": "_to",
                    "type": "address"
                },
                {
                    "internalType": "uint256",
                    "name": "_value",
                    "type": "uint256"
                }
            ],
            "name": "transferFrom",
            "outputs": [
                {
                    "internalType": "bool",
                    "name": "success",
                    "type": "bool"
                }
            ],
            "stateMutability": "nonpayable",
            "type": "function"
        }
    ],
    "bytecode": "60806040523480156200001157600080fd5b5060405162000dbd38038062000dbd8339810160408190526200003491620000ec565b336000908152600160205260408120849055839055600462000057838262000277565b506003805460ff191660ff83161790556200007f60066200009a602090811b6200067a17901c565b5050600580546001600160a01b031916331790555062000343565b60016000818152602092909252604090912080546001600160a01b0319169091179055565b634e487b7160e01b600052604160045260246000fd5b805160ff81168114620000e757600080fd5b919050565b6000806000606084860312156200010257600080fd5b8351602080860151919450906001600160401b03808211156200012457600080fd5b818701915087601f8301126200013957600080fd5b8151818111156200014e576200014e620000bf565b604051601f8201601f19908116603f01168101908382118183101715620001795762000179620000bf565b816040528281528a868487010111156200019257600080fd5b600093505b82841015620001b6578484018601518185018701529285019262000197565b82841115620001c85760008684830101525b809750505050505050620001df60408501620000d5565b90509250925092565b600181811c90821680620001fd57607f821691505b6020821081036200021e57634e487b7160e01b600052602260045260246000fd5b50919050565b601f8211156200027257600081815260208120601f850160051c810160208610156200024d5750805b601f850160051c820191505b818110156200026e5782815560010162000259565b5050505b505050565b81516001600160401b03811115620002935762000293620000bf565b620002ab81620002a48454620001e8565b8462000224565b602080601f831160018114620002e35760008415620002ca5750858301515b600019600386901b1c1916600185901b1785556200026e565b600085815260208120601f198616915b828110156200031457888601518255948401946001909101908401620002f3565b5085821015620003335787850151600019600388901b60f8161c191681555b5050505050600190811b01905550565b610a6a80620003536000396000f3fe608060405234801561001057600080fd5b506004361061009e5760003560e01c806370a082311161006657806370a082311461012d578063a9059cbb14610156578063c0639e9514610169578063d967f5931461017e578063dd62ed3e1461019357600080fd5b806306fdde03146100a3578063095ea7b3146100c157806318160ddd146100e457806323b872dd146100fb578063313ce5671461010e575b600080fd5b6100ab6101cc565b6040516100b891906107f7565b60405180910390f35b6100d46100cf366004610868565b61025a565b60405190151581526020016100b8565b6100ed60005481565b6040519081526020016100b8565b6100d4610109366004610892565b6102c6565b60035461011b9060ff1681565b60405160ff90911681526020016100b8565b6100ed61013b3660046108ce565b6001600160a01b031660009081526001602052604090205490565b6100d4610164366004610868565b610411565b61017c6101773660046108ce565b61058a565b005b610186610669565b6040516100b891906108f0565b6100ed6101a136600461093d565b6001600160a01b03918216600090815260026020908152604080832093909416825291909152205490565b600480546101d990610970565b80601f016020809104026020016040519081016040528092919081815260200182805461020590610970565b80156102525780601f1061022757610100808354040283529160200191610252565b820191906000526020600020905b81548152906001019060200180831161023557829003601f168201915b505050505081565b3360008181526002602090815260408083206001600160a01b038716808552925280832085905551919290917f8c5be1e5ebec7d5bd14f71427d1e84f3dd0314c0f7b2291e5b200ac8c7c3b925906102b59086815260200190565b60405180910390a350600192915050565b6001600160a01b0383166000818152600260209081526040808320338452825280832054938352600190915281205490919083118015906103075750828110155b61031057600080fd5b6001600160a01b038416600090815260016020526040812080548592906103389084906109c0565b90915550506001600160a01b038516600090815260016020526040812080548592906103659084906109d8565b90915550610376905060068561069f565b6000198110156103b9576001600160a01b0385166000908152600260209081526040808320338452909152812080548592906103b39084906109d8565b90915550505b836001600160a01b0316856001600160a01b03167fddf252ad1be2c89b69c2b068fc378daa952ba7f163c4a11628f55a4df523b3ef856040516103fe91815260200190565b60405180910390a3506001949350505050565b60006001600160a01b03831661046e5733600090815260016020526040812080548492906104409084906109c0565b925050819055508160008082825461045891906109c0565b90915550610469905060063361069f565b61054d565b336000908152600160205260409020548211156104e35760405162461bcd60e51b815260206004820152602860248201527f56616c6f722061207472616e736665726972207375706572696f7220616c206560448201526778697374656e746560c01b60648201526084015b60405180910390fd5b33600090815260016020526040812080548492906105029084906109d8565b90915550506001600160a01b0383166000908152600160205260408120805484929061052f9084906109c0565b925050819055508160008082825461054791906109d8565b90915550505b6040518281526001600160a01b0384169033907fddf252ad1be2c89b69c2b068fc378daa952ba7f163c4a11628f55a4df523b3ef906020016102b5565b6005546001600160a01b031633146105f45760405162461bcd60e51b815260206004820152602760248201527f536f6c6f20656c206f776e657220707565646520626f727261722070726f647560448201526631ba37b932b99760c91b60648201526084016104da565b604051635c3b75f160e11b8152600660048201526001600160a01b038216602482015273__$7607e9cb2949b046b2b5a007f25cc0b539$__9063b876ebe29060440160006040518083038186803b15801561064e57600080fd5b505af4158015610662573d6000803e3d6000fd5b5050505050565b6060610675600661071c565b905090565b60016000818152602092909252604090912080546001600160a01b0319169091179055565b6001600160a01b038082166000908152602084905260409020541661071857600160008181526020849052604080822080546001600160a01b038681168086529385208054919092166001600160a01b0319918216179091558484528154169091179055908301805491610712836109ef565b91905055505b5050565b60606000826001015467ffffffffffffffff81111561073d5761073d610a08565b604051908082528060200260200182016040528015610766578160200160208202803683370190505b5060016000908152602085905260408120549192506001600160a01b03909116905b6001600160a01b0382166001146107ee57818382815181106107ac576107ac610a1e565b6001600160a01b0392831660209182029290920181019190915292811660009081529286905260409092205490911690806107e6816109ef565b915050610788565b50909392505050565b600060208083528351808285015260005b8181101561082457858101830151858201604001528201610808565b81811115610836576000604083870101525b50601f01601f1916929092016040019392505050565b80356001600160a01b038116811461086357600080fd5b919050565b6000806040838503121561087b57600080fd5b6108848361084c565b946020939093013593505050565b6000806000606084860312156108a757600080fd5b6108b08461084c565b92506108be6020850161084c565b9150604084013590509250925092565b6000602082840312156108e057600080fd5b6108e98261084c565b9392505050565b6020808252825182820181905260009190848201906040850190845b818110156109315783516001600160a01b03168352928401929184019160010161090c565b50909695505050505050565b6000806040838503121561095057600080fd5b6109598361084c565b91506109676020840161084c565b90509250929050565b600181811c9082168061098457607f821691505b6020821081036109a457634e487b7160e01b600052602260045260246000fd5b50919050565b634e487b7160e01b600052601160045260246000fd5b600082198211156109d3576109d36109aa565b500190565b6000828210156109ea576109ea6109aa565b500390565b600060018201610a0157610a016109aa565b5060010190565b634e487b7160e01b600052604160045260246000fd5b634e487b7160e01b600052603260045260246000fdfea2646970667358221220823f45da71d2ac7dc578f2ca0010dd4c60e74bf830fababcc3f0ec932c37542e64736f6c634300080f0033",
    "sourcePath": "c:/Users/pacog/Documents/VisualCodeWS/DApps/dappWeb3/src/SCs/ERC20/Produccion.sol",
    "compiler": {
        "name": "solc",
        "version": "0.8.15+commit.e14f2714"
    },
    "functionHashes": {
        "allowance(address,address)": "dd62ed3e",
        "approve(address,uint256)": "095ea7b3",
        "balanceOf(address)": "70a08231",
        "borraProductor(address)": "c0639e95",
        "decimals()": "313ce567",
        "getAllProductores()": "d967f593",
        "name()": "06fdde03",
        "totalSupply()": "18160ddd",
        "transfer(address,uint256)": "a9059cbb",
        "transferFrom(address,address,uint256)": "23b872dd"
    },
    "gasEstimates": {
        "creation": {
            "codeDepositCost": "533200",
            "executionCost": "infinite",
            "totalCost": "infinite"
        },
        "external": {
            "allowance(address,address)": "infinite",
            "approve(address,uint256)": "24522",
            "balanceOf(address)": "2537",
            "borraProductor(address)": "infinite",
            "decimals()": "2402",
            "getAllProductores()": "infinite",
            "name()": "infinite",
            "totalSupply()": "2340",
            "transfer(address,uint256)": "infinite",
            "transferFrom(address,address,uint256)": "infinite"
        }
    }
}